:1000000038C051C050C04FC071C04DC05EC04BC061
:100010004AC049C048C0547375796F7368694040DD
:100020004030313233547375796F736869404040A2
:1000300030313233547375796F73686940404030A2
:10004000313233547375796F736869404040303191
:100050003233547375796F73686940404030313280
:1000600033547375796F736869404040303132336F
:10007000000011241FBECFEDCDBF10E0A0E6B0E020
:10008000E0EBF4E003C0C89531960D92A236B107BB
:10009000D1F720E0A2E6B0E001C01D92A138B2077E
:1000A000E1F7B4D103C2ACCF83EF87BB81E088BB5B
:1000B00080E481BB87E083BF8AE08EBD82EE94E05E
:1000C0009BBD8ABD82E489BF08951F920F920FB62F
:1000D0000F9211248F93809176008F5F809376002A
:1000E0008F910F900FBE0F901F9018951F920F9237
:1000F0000FB60F9211242F933F938F939F9392B338
:1001000080E4892782BB80917700909178000196E6
:10011000883E23E0920728F490937800809377003C
:100120005BC0109278001092770022B78091760021
:1001300090E0982F8827820F911D1092760012BEB2
:1001400020917200309173003093750020937400F9
:1001500020917000309171003093730020937200F1
:1001600020916E0030916F003093710020937000E9
:1001700020916C0030916D0030936F0020936E00E1
:1001800020916A0030916B0030936D0020936C00D9
:10019000209168003091690030936B0020936A00D1
:1001A00020916600309167003093690020936800C9
:1001B00020916400309165003093670020936600C1
:1001C00020916200309163003093650020936400B9
:1001D00090936300809362009F918F913F912F9144
:1001E0000F900FBE0F901F90189598B39F7098BBFB
:1001F00098B3807F982B98BBC19A82E48A95F1F7D7
:1002000000C0C19882E48A95F1F700C00895CF93A9
:10021000C82F807FEADF8C2F8295807FE6DF8FE119
:100220009EE40197F1F700C00000CF910895C098B7
:10023000DCDFC09A0895C098EADFC09A0895CF9293
:10024000DF92EF92FF920F931F93CF93DF9380E89B
:10025000F2DF8091620090916300209174003091F0
:100260007500482F592F4F5F5F4F4217530770F0AB
:1002700001972817390750F087E4C9DF8FE6C7DFF9
:100280008FE6C5DF84E6C3DF8EE209C081E2BFDF0F
:1002900080E2BDDF80E2BBDF80E2B9DF80E2B7DF72
:1002A000609174007091750080917200909173005C
:1002B000680F791F8091700090917100680F791F0D
:1002C00080916E0090916F00680F791F80916C0093
:1002D00090916D00680F791F80916A0090916B007A
:1002E000680F791F8091680090916900680F791FED
:1002F0008091660090916700680F791F809164007B
:1003000090916500680F791F809162009091630061
:10031000680F791F80E090E02AE030E040E050E094
:1003200083D02AE030E040E050E099D0C1E8D0E04E
:1003300009E710E08AE0C82ED12CE12CF12C622FC5
:10034000732F842F952F5F2D4E2D3D2D2C2D87D073
:10035000605D6A930C171D0791F780EC6CDFF12C40
:10036000C0E0D0E0E02FF12F81910E2F1F2F8033BE
:1003700029F4F11003C080E24ADF03C048DFFF2404
:10038000F3942196C830D10531F0C730D10551F72B
:100390008EE23DDFE7CFDF91CF911F910F91FF906C
:1003A000EF90DF90CF9008952FE382E49FE02150FB
:1003B00080409040E1F700C0000080E338DF83ED2B
:1003C00090E30197F1F700C0000080E330DF83ED98
:1003D00090E30197F1F700C0000080E328DF83EC91
:1003E00099E00197F1F700C0000080E220DF88E289
:1003F00022DF8EE020DF86E01EDF81E01CDF8BE75E
:1004000092E90197F1F700C0000008952FE38DE015
:1004100093E0215080409040E1F700C0000044DEAE
:10042000C3DF78940CDFFECFEE27FF27AA27BB2778
:1004300008C0A20FB31FE41FF51F220F331F441F74
:10044000551F969587957795679598F37040A9F70E
:10045000009799F76A2F7B2F8E2F9F2F0895A1E287
:100460001A2EAA1BBB1BEA2FFB2F0DC0AA1FBB1FF6
:10047000EE1FFF1FA217B307E407F50720F0A21B2A
:10048000B30BE40BF50B661F771F881F991F1A9497
:1004900069F76095709580959095262F372F482F96
:1004A000592F6A2F7B2F8E2F9F2F0895F894FFCFFF
:0204B000D20474
:00000001FF
