:100000000EC028C027C026C025C024C023C022C0DF
:1000100021C020C009C11EC01DC01CC01BC01124AE
:100020001FBECFE5D2E0DEBFCDBF10E0A0E6B0E05E
:10003000E6E9F2E002C005900D92A037B107D9F7CA
:1000400020E0A0E7B0E001C01D92A738B207E1F7B9
:10005000FAD01FC1D5CF83E087BB0895E1E7F0E078
:100060008FEF9FEFDC0180839183A283B38384832E
:100070009583A683B78380879187A287B387848778
:100080009587A687B7870895E1E7F0E080819181A1
:10009000A281B3810197A109B1098E3F2FEF920789
:1000A000A207B20720F480839183A283B38334969E
:1000B00080E0E138F80751F7089590E0880F991F24
:1000C000880F991FFC01EF58FF4FDC01A05ABF4F6A
:1000D0008D919D910D90BC91A02D80839183A283E1
:1000E000B3830895E82FF0E0EE0FFF1FEE0FFF1F20
:1000F000EF58FF4F8FEF9FEFDC0180839183A28346
:10010000B3830895E82FF0E0EE0FFF1FEE0FFF1FFF
:10011000EF58FF4F81E04081518162817381452B0F
:10012000462B472B09F080E00895E82FF0E0EE0F12
:10013000FF1FEE0FFF1FEF58FF4F81E040815181FD
:10014000628173814F3F5F4F6F4F7F4F09F080E0B7
:100150000895E82FF0E0EE0FFF1FEE0FFF1FEF589E
:10016000FF4F408151816281738141505109610982
:10017000710981E04E3F5F4F6F4F7F4F08F080E085
:100180000895E82FF0E0EE0FFF1FEE0FFF1FEF586E
:10019000FF4F40835183628373830895C49A8AE03A
:1001A000809383008FEF80938100809385008093FC
:1001B0008200089530918100409185002091820055
:1001C000942F922B982B932324232823922B9093C4
:1001D0008100232F20952923209386009095932337
:1001E000909384004093820080938500089510923C
:1001F00086001092840080918300815019F08093D2
:10020000830008958AE08093830086B38071D2CF03
:1002100082E08ABD83E083BF8CE789BD80E189BF2E
:1002200012BE1092700008951F920F920FB60F9297
:1002300011248F9381E0809370008F910F900FBEF7
:100240000F901F901895E4DF09DF1EDFD0DF80914B
:10025000840084FDC09A8091860084FF03C0C0980A
:1002600080E02BDF80E04EDF882329F080E03ADF5A
:1002700081E023DFC19A81E045DF882319F081E026
:1002800031DFC198809170008823E1F310927000F3
:06029000DCCFF894FFCF63
:1002960088130000B80B0000E7030000E703000026
:00000001FF
