:1000000009C021C020C01FC01EC01DC03AC01BC0F7
:100010001AC019C011241FBECFE9CDBF10E0A0E661
:10002000B0E0EEE8F3E002C005900D92A037B10712
:10003000D9F720E0A0E7B0E001C01D92AB38B207CD
:10004000E1F707D1A2C1DCCF82E08FBD83BF85E994
:1000500086BF12BE84E089BF8FE087BB80E188BB8A
:10006000E199FECF80E090E07CD190E0A0E0B0E0AC
:100070008093710090937200A0937300B09374000A
:1000800008951F920F920FB60F9211248F9381E063
:10009000809370008F910F900FBE0F901F90189556
:1000A000E5E7F0E08FEF9FEFDC0180839183A2838F
:1000B000B38384839583A683B78380879187A28740
:1000C000B38784879587A687B7870895E5E7F0E02B
:1000D00080819181A281B3810197A109B1098E3FED
:1000E0002FEF9207A207B20720F480839183A283A7
:1000F000B383349680E0E538F80751F7089590E02F
:10010000880F991F880F991FFC01EB58FF4FDC01E6
:10011000A05ABF4F8D919D910D90BC91A02D8083D1
:100120009183A283B3830895E82FF0E0EE0FFF1FC1
:10013000EE0FFF1FEB58FF4F8FEF9FEFDC01808327
:100140009183A283B3830895E82FF0E0EE0FFF1FA1
:10015000EE0FFF1FEB58FF4F81E04081518162811C
:100160007381452B462B472B09F080E00895E82F3B
:10017000F0E0EE0FFF1FEE0FFF1FEB58FF4F81E087
:1001800040815181628173814F3F5F4F6F4F7F4F3D
:1001900009F080E00895E82FF0E0EE0FFF1FEE0F6A
:1001A000FF1FEB58FF4F40815181628173814150A5
:1001B00051096109710981E04E3F5F4F6F4F7F4FD9
:1001C00008F080E00895E82FF0E0EE0FFF1FEE0F3B
:1001D000FF1FEB58FF4F4083518362837383089561
:1001E0008AE0809387008FEF809385008093890059
:1001F0008093860008953091850040918900209178
:100200008600942F922B982B932324232823922B20
:1002100090938500232F2095292320938A00909581
:1002200093239093880040938600809389000895DB
:1002300010928A001092880080918700815019F0F6
:100240008093870008958AE08093870086B3807149
:10025000D2CFFADE25DFC4DF789410E0C0E0D0E032
:10026000E7DF34DF8091880084FF03C0DF5F80E038
:1002700046DF80E069DF8823E1F0D13041F481E09E
:100280008ADF882309F43EC081E04EDF0FC0D530FD
:1002900069F4C1110BC082E032DF1092710010923C
:1002A00072001092730010927400C1E080E03CDF95
:1002B000D0E081E070DF882311F0C39A01C0C398B9
:1002C0008091790090917A00A0917B00B0917C00A0
:1002D000892B8A2B8B2B11F0C19AC198CC2321F04A
:1002E000C19A1F5F17FDC09882E02EDF882319F0A6
:1002F00082E01ADFC0E0809170008823E1F3109261
:100300007000AECF81E033DF882359F04091710057
:1003100050917200609173007091740081E053DF1E
:10032000C5CFC13019F68091710090917200A091F3
:100330007300B0917400BC01CD016F5F7F4F8F4F90
:100340009F4F60937100709372008093730090933D
:100350007400E199FECF80E090E00AD082E0CFDE29
:10036000A5CFE199FECF8EBBE09A99278DB3089572
:10037000262FE199FECF1CBA8EBB2DBB0FB6F89489
:0E038000E29AE19A0FBE01960895F894FFCF1D
:10038E0058020000A0BB0D0070170000E70300002C
:02000004008179
:0100000000FF
:00000001FF
