:1000000009C021C020C01FC01EC01DC02BC01BC006
:100010001AC019C011241FBECFE9CDBF10E0A0E661
:10002000B0E0E6EBF2E002C005900D92A037B10718
:10003000D9F720E0A0E7B0E001C01D92A938B207CF
:10004000E1F7FAD036C1DCCF82E08FBD83BF8CE709
:1000500086BF12BE84E089BF000089E087BB82E1D1
:1000600088BB08951F920F920FB60F9211248F93A1
:1000700081E0809372008F910F900FBE0F901F90C0
:100080001895E3E7F0E08FEF9FEFDC018083918329
:10009000A283B38384839583A683B7838087918764
:1000A000A287B38784879587A687B7870895E3E7F4
:1000B000F0E080819181A281B3810197A109B1090A
:1000C0008E3F2FEF9207A207B20720F4808391831F
:1000D000A283B383349680E0E338F80751F708959C
:1000E00090E0880F991F880F991FFC01ED58FF4F72
:1000F000DC01A05ABF4F8D919D910D90BC91A02D18
:1001000080839183A283B3830895E82FF0E0EE0FFC
:10011000FF1FEE0FFF1FED58FF4F8FEF9FEFDC012A
:1001200080839183A283B3830895E82FF0E0EE0FDC
:10013000FF1FEE0FFF1FED58FF4F81E040815181FF
:1001400062817381452B462B472B09F080E008958F
:10015000E82FF0E0EE0FFF1FEE0FFF1FED58FF4FEF
:1001600081E040815181628173814F3F5F4F6F4FCA
:100170007F4F09F080E00895E82FF0E0EE0FFF1FB9
:10018000EE0FFF1FED58FF4F408151816281738157
:10019000415051096109710981E04E3F5F4F6F4F36
:1001A0007F4F08F080E00895E82FF0E0EE0FFF1F8A
:1001B000EE0FFF1FED58FF4F40835183628373831F
:1001C0000895C49A00008AE0809385008FEF8093A1
:1001D000830080938700809384000895309183008A
:1001E0004091870020918400942F922B982B932389
:1001F00024232823922B90938300232F20952923B7
:1002000020938800909593239093860040938400D8
:100210008093870008951092880010928600809144
:100220008500815019F08093850008958AE08093BD
:10023000850086B38071D2CF07DF23DFC2DF7894D9
:10024000EADF35DFB19B06C080917100882311F091
:1002500080E046DF80E069DF882329F080E055DF19
:1002600081E03EDFC09A81E060DF882319F081E001
:100270004CDFC0988091860084FF07C08091700099
:100280008F5F8093700082E02BDF82E04EDF882357
:1002900049F080917000813009F4000082E035DF80
:1002A00010927000809172008823E1F31092720026
:0602B000C7CFF894FFCF58
:1002B6001027000060EA000058020000E703000073
:00000001FF
