:100000000EC028C027C026C025C024C023C022C0DF
:1000100021C020C01FC01EC01DC01CC01BC0112499
:100020001FBECFE5D2E0DEBFCDBF10E0A0E6B0E05E
:10003000E8E2F2E002C005900D92A037B107D9F7CF
:1000400020E0A0E7B0E001C01D92A638B207E1F7BA
:10005000E6D0E8C0D5CF87EE80BF82ED8DBD89E6C2
:100060008EBD82E087BB0895E0E7F0E08FEF9FEF61
:10007000DC0180839183A283B38384839583A683E9
:10008000B78380879187A287B38784879587A68760
:10009000B7870895E0E7F0E080819181A281B38184
:1000A0000197A109B1098E3F2FEF9207A207B2076E
:1000B00020F480839183A283B383349680E0E03878
:1000C000F80751F7089590E0880F991F880F991F3E
:1000D000FC01E059FF4FDC01A05ABF4F8D919D916B
:1000E0000D90BC91A02D80839183A283B38308954A
:1000F000E82FF0E0EE0FFF1FEE0FFF1FE059FF4F5C
:100100008FEF9FEFDC0180839183A283B3830895F7
:10011000E82FF0E0EE0FFF1FEE0FFF1FE059FF4F3B
:1001200081E04081518162817381452B462B472BB1
:1001300009F080E00895E82FF0E0EE0FFF1FEE0FCA
:10014000FF1FE059FF4F81E040815181628173813F
:100150004F3F5F4F6F4F7F4F09F080E00895E82FCA
:10016000F0E0EE0FFF1FEE0FFF1FE059FF4F408141
:10017000518162817381415051096109710981E0A6
:100180004E3F5F4F6F4F7F4F08F080E00895E82F9C
:10019000F0E0EE0FFF1FEE0FFF1FE059FF4F40830F
:1001A0005183628373830895C49A00008AE0809328
:1001B00082008FEF80938000809384008093810081
:1001C0000895309180004091840020918100942F07
:1001D000922B982B932324232823922B90938000F7
:1001E000232F209529232093850090959323909386
:1001F00083004093810080938400089510928500CD
:100200001092830080918200815019F080938200C7
:1002100008958AE08093820086B38071D2CF1BDF7D
:080220007894FFCFF894FFCFA2
:10022800F401000020BF0200E7030000E70300001C
:00000001FF
