:100000000EC015C014C013C012C011C010C00FC064
:100010000EC00DC00CC00BC00AC009C008C011241E
:100020001FBECFE5D2E0DEBFCDBF32D049C0E8CFA2
:100030008FE188BB87EE93E00197F1F700C00000E5
:1000400018BA87E598E90197F1F700C00000089514
:100050008FE188BB83E59BE00197F1F700C00000CA
:1000600018BA8BEE90E90197F1F700C000000895EF
:100070008FE188BB8FEB92E10197F1F700C00000A0
:1000800018BA8FE799E80197F1F700C000000895CA
:100090008FE187BB88BB2FEF89E698E12150804034
:1000A0009040E1F700C00000C3DF2FEF89E698E140
:1000B000215080409040E1F700C00000D9DFEBCF35
:0400C000F894FFCFE2
:00000001FF
