:100000000C9434000C9446000C9446000C9446006A
:100010000C9446000C9446000C9446000C94460048
:100020000C9446000C9446000C9446000C945E0020
:100030000C9446000C9446000C9446000C94460028
:100040000C9446000C9446000C9446000C94460018
:100050000C9446000C9446000C9446000C94460008
:100060000C9446000C94460011241FBECFEFD8E03C
:10007000DEBFCDBF21E0A0E0B1E001C01D92A13004
:10008000B207E1F70E946D000C9479000C94000017
:1000900082E08093800091E49093810021EA32E035
:1000A000309389002093880080936F001092850020
:1000B0001092840084B981E187B908951F920F924C
:1000C0000FB60F9211248F9381E0809300018F91DE
:1000D0000F900FBE0F901F9018950E9448007894C3
:1000E0008FEF909100019923E1F31092000188B9FC
:0600F000F8CFF894FFCFE9
:00000001FF
