:020000020000FC
:100000000EC03BC03BC03BC03BC03BC03BC03BC045
:100010003BC03BC03BC03CC03CC03CC03CC002E01D
:100020000EBF0FE50DBF0FEF07BB02E00ABD03E0F7
:1000300003BF00E109BF0CE709BD00E002BF7894EF
:1000400021E010FFFECF1E7F119608ECA01700E004
:10005000B00729F4AA27BB2711FF03C008C028BB9B
:10006000F0CF220F203111F4126020E1F8CF269555
:10007000213011F41D7F21E0F2CF189518951895C5
:100080001895189518951895189518951160189544
:080090001895189518951895B4
:00000001FF
