:1000000019C033C032C075C030C02FC02EC02DC043
:100010002CC02BC050C029C028C027C026C0C7C0D4
:10002000C9C0C9C0C9C0C9C0C9C0C9C0C9C0C9C088
:10003000C9C0C9C011241FBECFE5D2E0DEBFCDBF0D
:1000400010E0A0E6B0E0E8E5F5E002C005900D9212
:10005000A437B107D9F720E0A4E7B0E001C01D92B2
:10006000A139B207E1F7BAD175C2CACF82E08ABD21
:1000700083E083BF88E189BD12BE8BE087BB0000AF
:10008000C49A87B5826087BD87EC90E00197F1F74D
:1000900000C0000007B400FEFDCF87B5846087BDB7
:1000A000000080E589BF81E0EDD081E080937A0097
:1000B0008093790008951F920F920FB60F9211242A
:1000C0008F939F93809178008F5F809378008091C9
:1000D0007500813031F410BE98B388E0892788BB61
:1000E00001C0C3989F918F910F900FBE0F901F90EA
:1000F00018951F920F920FB60F9211240F900FBEFA
:100100000F901F90189580EF80BF08958BEF80BFF0
:100110008DE98DBD81E08EBD08958CEF80BF8AE4AE
:100120008DBD81E08EBD08958AEF80BF8CEE8DBDC0
:1001300081E08EBD08958AEF80BF83EC8DBD81E0A4
:100140008EBD08958AEF80BF88EA8DBD81E08EBDA7
:1001500008958AEF80BF82E98DBD81E08EBD08954C
:100160008AEF80BF8CE88DBD81E08EBD08958BEF56
:1001700080BF80E98DBD81E08EBD08958BEF80BF8B
:100180008CE88DBD81E08EBD08958CEF80BF8BEC37
:100190008DBD81E08EBD0895E09179008E2F90E0B5
:1001A0008B30910588F4FC01E15FFF4F099480EFEB
:1001B00080BF0895ABCFB1CFB7CFBDCFC3CFC9CF2D
:1001C000CFCFD5CFDBCFE1CF0895809160008150B4
:1001D00019F080936000089582E38093600080911D
:1001E000760090917700892BD9F080EF80BF8091C5
:1001F000760090917700892F881F8827881F809329
:1002000075008091760090917700880F991F9093E8
:1002100077008093760098B382E0892788BB0895A1
:1002200010927500B9CFEBE7F0E08FEF9FEFDC01A4
:1002300080839183A283B38384839583A683B783CA
:1002400080879187A287B38784879587A687B7879A
:100250000895EBE7F0E080819181A281B38101975D
:10026000A109B1098E3F2FEF9207A207B20720F430
:1002700080839183A283B383349680E0EB38F807C0
:1002800051F7089590E0880F991F880F991FFC017E
:10029000E558FF4FDC01AD59BF4F8D919D910D90F9
:1002A000BC91A02D80839183A283B3830895E82F0E
:1002B000F0E0EE0FFF1FEE0FFF1FE558FF4F8FEF2F
:1002C0009FEFDC0180839183A283B3830895E82F9D
:1002D000F0E0EE0FFF1FEE0FFF1FE558FF4F81E02C
:1002E0004081518162817381452B462B472B09F058
:1002F00080E00895E82FF0E0EE0FFF1FEE0FFF1FE4
:10030000E558FF4F81E040815181628173814F3F09
:100310005F4F6F4F7F4F09F080E00895E82FF0E0C6
:10032000EE0FFF1FEE0FFF1FE558FF4F4081518179
:1003300062817381415051096109710981E04E3F29
:100340005F4F6F4F7F4F08F080E00895E82FF0E097
:10035000EE0FFF1FEE0FFF1FE558FF4F4083518345
:10036000628373830895C49A00008AE080938D00AD
:100370008FEF80938B0080938F0080938C00089583
:1003800030918B0040918F0020918C00942F922B04
:10039000982B932324232823922B90938B00232F95
:1003A00020952923209390009095932390938E007D
:1003B00040938C0080938F000895109290001092CB
:1003C0008E0080918D00815019F080938D000895EA
:1003D0008AE080938D0086B38071D2CF47DE23DF21
:1003E000C2DFE199FECF80E090E09ED08093620072
:1003F0007894C0E0D0E801E010E89924939480E379
:10040000E82E80EFF82E9AEAC92EDC2C20ECA22EE2
:1004100023EAB22ED2DF1DDFD8DE80918E0084FF6A
:100420000EC0D0937700C093760080E050DF81113A
:1004300001C028DF809174008F5F8093740080E09A
:1004400046DF882309F44FC0809174008130A1F405
:1004500010927A00809179008F5F809379008B30C1
:1004600010F01092790080917900811137C0B0921C
:100470007700A092760032C0823079F490927A00B0
:1004800081E000DFD0927700C09276008091790001
:10049000811124C09092790021C0833049F41092D8
:1004A0007A0010927900F0927700E092760016C000
:1004B0008530A1F41093770000937600809162005C
:1004C000882319F01092620002C090926200E199B4
:1004D000FECF6091620080E090E02ED01092740018
:1004E00080E0E5DE59DE80907A0081E088120EC05F
:1004F000EEDE882359F081E0C5DE809179008F5FC0
:10050000809379008B3010F08092790080916200A6
:10051000882311F0C39A01C0C39880917800853078
:10052000E0F31092780076CFE199FECF9FBB8EBBAF
:10053000E09A99278DB30895262FE199FECF1CBA32
:100540009FBB8EBB2DBB0FB6F894E29AE19A0FBE0B
:0805500001960895F894FFCF15
:10055800320201F401000020BF0200E7030000E7B7
:04056800030000008C
:02000004008179
:0100000000FF
:00000001FF
