:100000001BC035C034C052C032C031C030C02FC058
:100010002EC02DC02DC02BC02AC029C028C0BAC0F8
:10002000BAC0BAC0BAC0BAC0BAC0BAC0BAC0BAC000
:10003000BAC0BAC0BAC0BAC011241FBECFE5D2E060
:10004000DEBFCDBF10E0A0E6B0E0E6EBF4E002C01A
:1000500005900D92A237B107D9F720E0A2E7B0E0F2
:1000600001C01D92AF38B207E1F7A6D122C2C8CFB6
:100070001F920F920FB60F9211248F939F9380912E
:1000800078008F5F8093780080917500813031F423
:1000900098B382E0892788BBC39801C0C39A9F9117
:1000A0008F910F900FBE0F901F9018951F920F9277
:1000B0000FB60F9211240F900FBE0F901F9018953E
:1000C00080E880BF1DBC089582E08ABD83E083BFC5
:1000D00088E189BD12BE8AE087BB0000C49A87B55B
:1000E000826087BD87EC90E00197F1F700C00000C7
:1000F00007B400FEFDCF87B5846087BD0000E0DF58
:1001000080E589BF08958BE980BF8EE48DBD089599
:100110008BE980BF8AE48DBD08958BE980BF8AE3B7
:100120008DBD08958BE980BF80E38DBD08958BE977
:1001300080BF89E28DBD08958DE980BF88E08DBDC7
:1001400008958BE980BF82E28DBD08958DE980BF5F
:1001500081E18DBD08958CE980BF82E28DBD089557
:100160008DE980BF82E38DBD089588E980BF8CE76B
:100170008DBD08958CE980BF83E08DBD0895E09129
:1001800074008E2F90E08D30910588F4FC01E15FC2
:10019000FF4F099495CFB7CFBBCFBFCFC3CFC7CF4A
:1001A000CBCFCFCFD3CFD7CFDBCFDFCFE3CF089528
:1001B00080916000815019F080936000089582E37F
:1001C000809360008091760090917700892BB1F048
:1001D00077DF8091760090917700892F881F88279C
:1001E000881F809375008091760090917700880F2A
:1001F000991F909377008093760008951092750070
:10020000BECFE9E7F0E08FEF9FEFDC0180839183C1
:10021000A283B38384839583A683B78380879187E2
:10022000A287B38784879587A687B7870895E9E76C
:10023000F0E080819181A281B3810197A109B10988
:100240008E3F2FEF9207A207B20720F4808391839D
:10025000A283B383349680E0E938F80751F7089514
:1002600090E0880F991F880F991FFC01E758FF4FF6
:10027000DC01AF59BF4F8D919D910D90BC91A02D88
:1002800080839183A283B3830895E82FF0E0EE0F7B
:10029000FF1FEE0FFF1FE758FF4F8FEF9FEFDC01AF
:1002A00080839183A283B3830895E82FF0E0EE0F5B
:1002B000FF1FEE0FFF1FE758FF4F81E04081518184
:1002C00062817381452B462B472B09F080E008950E
:1002D000E82FF0E0EE0FFF1FEE0FFF1FE758FF4F74
:1002E00081E040815181628173814F3F5F4F6F4F49
:1002F0007F4F09F080E00895E82FF0E0EE0FFF1F38
:10030000EE0FFF1FE758FF4F4081518162817381DB
:10031000415051096109710981E04E3F5F4F6F4FB4
:100320007F4F08F080E00895E82FF0E0EE0FFF1F08
:10033000EE0FFF1FE758FF4F4083518362837383A3
:100340000895C49A00008AE080938B008FEF809319
:10035000890080938D0080938A00089530918900F0
:1003600040918D0020918A00942F922B982B9323FB
:1003700024232823922B90938900232F209529232F
:1003800020938E009095932390938C0040938A0045
:1003900080938D00089510928E0010928C008091B1
:1003A0008B00815019F080938B0008958AE0809330
:1003B0008B0086B38071D2CF87DE23DFC2DF7894D3
:1003C000C0E0D0E800E811EFBB24B39489E1E82E47
:1003D0008AEAF82E90ECC92E93EAD92EDCDF27DFCB
:1003E000E7DE80918C0084FF0EC0D0937700C0932D
:1003F000760080E05ADF811101C032DF8091730006
:100400008F5F8093730080E050DF8823C1F180917B
:1004100073008130A1F410927200809174008F5F9C
:10042000809374008B3010F01092740080917400EF
:10043000811120C0D0927700C09276001BC082301C
:1004400079F4B092720081E00BDFF0927700E092D5
:1004500076008091740081110DC0B09274000AC0C2
:10046000833041F410927200109274001093770060
:10047000009376001092730080E007DF80DEA0908A
:10048000720081E0A8120EC010DF882359F081E0CD
:10049000E7DE809174008F5F809374008B3010F0E2
:1004A000A0927400809178008530E0F3109278007B
:0604B00095CFF894FFCF88
:1004B60032F401000020BF0200E7030000E703005A
:0204C600000034
:00000001FF
