:020000020000FC
:020000000EC030
:020014004BC0DF
:10001E000FE107BB02E00ABD02E003BF09E009BD24
:10002E0000E109BF78941123F1F3112701E0400F8D
:10003E000027501F601F00EA401706E8500701E036
:10004E00600799F44427552766273395313011F40C
:10005E0022E30BC0323011F421E907C0333011F422
:10006E0020EF03C0343009F4332701D0DCCF01E098
:10007E00801700E0900719F40FE108BB0EC082173D
:10008E0000E0900719F400E008BB07C000ED8017F0
:10009E0007E0900711F488279927019608950F938A
:0A00AE000FB71FEF0FBF0F91189559
:00000001FF
