:100000001AC034C033C051C031C030C02FC02EC060
:100010002DC02CC02CC02AC029C028C027C0BBC0FE
:10002000BBC0BBC0BBC0BBC0BBC0BBC0BBC0BBC0F8
:10003000BBC0BBC0BBC011241FBECFE5D2E0DEBF3A
:10004000CDBF10E0A0E6B0E0E4E3F5E002C005902B
:100050000D92A237B107D9F720E0A2E7B0E001C0C6
:100060001D92AF38B207E1F7A7D162C2C9CF1F9284
:100070000F920FB60F9211248F939F938091760069
:100080008F5F8093760080917300813031F498B354
:1000900082E0892788BBC39A01C0C3989F918F9142
:1000A0000F900FBE0F901F9018951F920F920FB6D2
:1000B0000F9211240F900FBE0F901F90189580E89B
:1000C00080BF1DBC089582E08ABD83E083BF88E1C4
:1000D00089BD12BE8AE087BB0000C49A87B58260E2
:1000E00087BD87EC90E00197F1F700C0000007B4EE
:1000F00000FEFDCF87B5846087BD0000E0DF80E5AE
:1001000089BF81E0ADD081E0809378008093770053
:1001100008958AE980BF8DE98DBD08958AE980BF81
:1001200085E98DBD089589E980BF8CEE8DBD089568
:1001300089E980BF83EC8DBD089589E980BF88EA95
:100140008DBD089589E980BF82E98DBD089589E953
:1001500080BF8CE88DBD089589E980BF80E98DBDA1
:1001600008958AE980BF8CE88DBD08958BE980BF32
:100170008BEC8DBD089587E980BF86EE8DBD089517
:10018000E09177008E2F90E08C30910580F4FC0197
:10019000E15FFF4F099493CFBCCFC0CFC4CFC8CF8E
:1001A000CCCFD0CFD4CFD8CFDCCFE0CFE4CF089521
:1001B00080916000815019F080936000089582E37F
:1001C000809360008091740090917500892BB1F04C
:1001D00076DF8091740090917500892F881F8827A1
:1001E000881F809373008091740090917500880F30
:1001F000991F909375008093740008951092730076
:10020000BFCFE9E7F0E08FEF9FEFDC0180839183C0
:10021000A283B38384839583A683B78380879187E2
:10022000A287B38784879587A687B7870895E9E76C
:10023000F0E080819181A281B3810197A109B10988
:100240008E3F2FEF9207A207B20720F4808391839D
:10025000A283B383349680E0E938F80751F7089514
:1002600090E0880F991F880F991FFC01E758FF4FF6
:10027000DC01AE59BF4F8D919D910D90BC91A02D89
:1002800080839183A283B3830895E82FF0E0EE0F7B
:10029000FF1FEE0FFF1FE758FF4F8FEF9FEFDC01AF
:1002A00080839183A283B3830895E82FF0E0EE0F5B
:1002B000FF1FEE0FFF1FE758FF4F81E04081518184
:1002C00062817381452B462B472B09F080E008950E
:1002D000E82FF0E0EE0FFF1FEE0FFF1FE758FF4F74
:1002E00081E040815181628173814F3F5F4F6F4F49
:1002F0007F4F09F080E00895E82FF0E0EE0FFF1F38
:10030000EE0FFF1FE758FF4F4081518162817381DB
:10031000415051096109710981E04E3F5F4F6F4FB4
:100320007F4F08F080E00895E82FF0E0EE0FFF1F08
:10033000EE0FFF1FE758FF4F4083518362837383A3
:100340000895C49A00008AE080938B008FEF809319
:10035000890080938D0080938A00089530918900F0
:1003600040918D0020918A00942F922B982B9323FB
:1003700024232823922B90938900232F209529232F
:1003800020938E009095932390938C0040938A0045
:1003900080938D00089510928E0010928C008091B1
:1003A0008B00815019F080938B0008958AE0809330
:1003B0008B0086B38071D2CF86DE23DFC2DFE19966
:1003C000FECF80E090E09ED0809361007894C0E002
:1003D000D0E801E010E89924939480E3E82E80EFC0
:1003E000F82E9AEAC92EDC2C20ECA22E23EAB22E9B
:1003F000D2DF1DDFDDDE80918C0084FF0EC0D09344
:100400007500C093740080E050DF811101C028DFC7
:10041000809172008F5F8093720080E046DF8823B6
:1004200009F44FC0809172008130A1F410927800DD
:10043000809177008F5F809377008C3010F010925E
:10044000770080917700811137C0B0927500A0923B
:10045000740032C0823079F49092780081E000DF3D
:10046000D0927500C092740080917700811124C0F1
:100470009092770021C0833049F410927800109256
:100480007700F0927500E092740016C08530A1F4F8
:10049000109375000093740080916100882319F017
:1004A0001092610002C090926100E199FECF6091CC
:1004B000610080E090E02ED01092720080E0E5DED6
:1004C0005FDE8090780081E088120EC0EEDE882327
:1004D00059F081E0C5DE809177008F5F80937700CF
:1004E0008B3010F08092770080916100882311F0AA
:1004F000C39A01C0C398809176008530E0F31092D2
:10050000760076CFE199FECF9FBB8EBBE09A99270C
:100510008DB30895262FE199FECF1CBA9FBB8EBBE9
:100520002DBB0FB6F894E29AE19A0FBE019608959A
:04053000F894FFCF6D
:100534003201F401000020BF0200E7030000E703DA
:020544000000B5
:02000004008179
:0100000000FF
:00000001FF
