:100000000EC028C027C026C025C024C023C022C0DF
:1000100021C020C02FC01EC01DC01CC01BC0112489
:100020001FBECFE5D2E0DEBFCDBF10E0A0E6B0E05E
:10003000E0E1F2E002C005900D92A037B107D9F7D8
:1000400020E0A0E7B0E001C01D92A138B207E1F7BF
:10005000C0D0DCC0D5CF82E08ABD83BF8CE789BD2C
:1000600080E189BF12BE87B3886187BB88B388618E
:1000700088BB08951F920F920FB60F9211248F9391
:1000800081E0809370008F910F900FBE0F901F90B2
:100090001895E1E7F0E08FEF9FEFDC01808391831B
:1000A000A283B38384839583A683B7838087918754
:1000B000A287B38784879587A687B7870895E1E7E6
:1000C000F0E080819181A281B3810197A109B109FA
:1000D0008E3F2FEF9207A207B20720F4808391830F
:1000E000A283B383349680E0E138F80751F708958E
:1000F00090E0880F991F880F991FFC01EF58FF4F60
:10010000DC01A05ABF4F8D919D910D90BC91A02D07
:1001100080839183A283B3830895E82FF0E0EE0FEC
:10012000FF1FEE0FFF1FEF58FF4F8FEF9FEFDC0118
:1001300080839183A283B3830895E82FF0E0EE0FCC
:10014000FF1FEE0FFF1FEF58FF4F81E040815181ED
:1001500062817381452B462B472B09F080E008957F
:10016000E82FF0E0EE0FFF1FEE0FFF1FEF58FF4FDD
:1001700081E040815181628173814F3F5F4F6F4FBA
:100180007F4F09F080E00895E82FF0E0EE0FFF1FA9
:10019000EE0FFF1FEF58FF4F408151816281738145
:1001A000415051096109710981E04E3F5F4F6F4F26
:1001B0007F4F08F080E00895E82FF0E0EE0FFF1F7A
:1001C000EE0FFF1FEF58FF4F40835183628373830D
:1001D00008955FDF40DF789472DF86B387708730E1
:1001E00029F088B3877E88BB80E082DF80E0A5DFCE
:1001F000882329F080E091DF88B3886188BB8091F3
:1002000070008823E1F310927000E6CFF894FFCFDE
:10021000983A000020BF0200E7030000E703000057
:00000001FF
