:100000002FC034C033C032C031C030C02FC02EC06A
:100010002DC02CC02BC05765206D616465204E65D6
:100020007720486F7573652100596F7520616E6484
:10003000204920616761696E2E0020202020202049
:10004000202020202020202020202020004C65740B
:10005000206D652074727920616761696E210000EE
:1000600011241FBECFEDCDBF5ED041C1C9CF83EFFC
:1000700087BB81E088BB80E481BB089598B39F7003
:1000800098BB98B3807F982B98BBC19A82E48A95DD
:10009000F1F700C0C19882E48A95F1F700C0089595
:1000A000CF93C82F807FEADF8C2F8295807FCF91FE
:1000B000E5CFC098E3DFC09A0895C098F1DFC09AF9
:1000C00008952FE382E49FE0215080409040E1F7C3
:1000D00000C0000080E3EDDF83ED90E30197F1F7CE
:1000E00000C0000080E3E5DF83ED90E30197F1F7C6
:1000F00000C0000080E3DDDF83EC99E00197F1F7B9
:1001000000C0000080E2D5DF88E2D7DF8EE0D5DFD7
:1001100086E0D3DF81E0D1DF8BE792E90197F1F749
:1001200000C000000895A3DFCCDF80E8C6DFC0E098
:10013000EC2FF0E0EA5EFF4FC895802D8823B1F0E8
:10014000AFDF2FE38FEE97E0215080409040E1F742
:1001500000C000008C2F8F718F3011F480EC03C031
:100160008F3111F481E0A9DFCF5FE2CF2FE784E880
:100170009EE1215080409040E1F700C0000080E8FF
:100180009CDFC0E0EC2FF0E0E65CFF4FC895802DCF
:100190008823B1F085DF2FE58AEE90E02150804082
:1001A0009040E1F700C000008C2F8F718F3011F468
:1001B00080EC03C08F3111F481E07FDFCF5FE2CFAD
:1001C00080E87BDFC0E0EC2FF0E0E35BFF4FC895F9
:1001D000802D8823B1F064DF2FE38FEE97E021506C
:1001E00080409040E1F700C000008C2F8F718F306D
:1001F00011F480EC03C08F3111F481E05EDFCF5F3A
:10020000E2CF2FE784E89EE1215080409040E1F763
:1002100000C0000080E851DFC0E0EC2FF0E0E65CB9
:10022000FF4FC895802D8823B1F03ADF2FE58AEE85
:1002300090E0215080409040E1F700C000008C2FFA
:100240008F718F3011F480EC03C08F3111F481E095
:1002500034DFCF5FE2CF80E830DFC0E0EC2FF0E0AA
:10026000E75DFF4FC895802D8823B1F019DF2FE39C
:100270008FEE97E0215080409040E1F700C00000F1
:100280008C2F8F718F3011F480EC03C08F3111F4FB
:1002900081E013DFCF5FE2CF2FE784E89EE12150BA
:1002A00080409040E1F700C0000080E806DFC0E039
:1002B000EC2FF0E0E65CFF4FC895802D882309F411
:1002C00034CFEEDE2FE58AEE90E021508040904062
:1002D000E1F700C000008C2F8F718F3011F480EC9B
:1002E00003C08F3111F481E0E8DECF5FE1CFF894F5
:0202F000FFCF3E
:00000001FF
