:020000020000FC
:100000000AC01895189518951895189530C0189528
:10001000189518951895F8940FED0DBF08E807BBD3
:1000200000E402BB00E40FBD09E00EBD05E10BBD1D
:100030000EEF0ABD02E003BF02E009BF06E002BF07
:1000400078949030F1F3992708D056FC02C003C091
:10005000F8CFC79AFDCFC798FBCF772466244A9480
:1000600029F40AE0402E50B200E4502208950FB661
:1000700006E002BF8395853009F491E00FBE189524
:00000001FF
