:100000000EC01DC01CC01BC01AC019C018C017C02C
:1000100016C015C015C013C012C011C010C01124E5
:100020001FBECFE5D2E0DEBFCDBF20E0A0E6B0E04E
:1000300001C01D92A336B207E1F71FD052C0E0CF36
:100040001F920F920FB60F9211248F939F9380915E
:10005000610090916200892B49F08091610090913C
:100060006200019790936200809361009F918F914D
:100070000F900FBE0F901F90189582E08ABD83BF2E
:100080008CE789BD80E189BF12BE469ABB9A7894FD
:1000900081E090E02AE030E0B99AC19800000000C9
:1000A0000000B998C19812BE9093620080936100DD
:1000B0004091610050916200452BD1F745990FC0E6
:1000C000B99AC19AC39A12BE30936200209361001C
:1000D0004091610050916200452BD1F7DDCFC3986C
:0600E000DBCFF894FFCF16
:00000001FF
