:100000000EC028C027C026C025C024C023C022C0DF
:1000100021C020C02AC01EC01DC01CC01BC011248E
:100020001FBECFE5D2E0DEBFCDBF10E0A0E6B0E05E
:10003000EAE8F1E002C005900D92A836B107D9F7C1
:1000400020E0A8E6B0E001C01D92A937B207E1F7B1
:1000500081D099C0D5CF82E08ABD83BF9CE799BD8E
:1000600090E199BF12BE87BB08951F920F920FB601
:100070000F9211248F9381E0809368008F910F90ED
:100080000FBE0F901F901895A9E6B0E088EE93E0A0
:1000900011969C938E93E1E7F0E08FEF9FEF9183B1
:1000A000808328E833E113963C932E931297938331
:1000B000828320E137E215963C932E931497958323
:1000C000848320E63AEE17963C932E9316979783F7
:1000D00086830895E1E7F0E08081918101978E3F6A
:1000E0002FEF920710F491838083329680E0E937F6
:1000F000F80791F7089590E0880F991FFC01EF58D9
:10010000FF4FDC01A759BF4F8D919C919183808354
:100110000895E82FF0E0EE0FFF1FEF58FF4F8FEF2D
:100120009FEF918380830895E82FF0E0EE0FFF1F8B
:10013000EF58FF4F81E020813181232B09F080E0CF
:100140000895E82FF0E0EE0FFF1FEF58FF4F718387
:100150006083089580DF789497DF80E0CCDFC2E091
:10016000B9DF809168008823E1F31092680080E095
:10017000DBDF8823A9F368EE73E080E0E2DF88B379
:0A0180008C2788BBEDCFF894FFCF69
:08018A00E8038813102760EA66
:00000001FF
