:100000000C9434000C9451000C9451000C94510049
:100010000C9451000C9451000C9451000C9451001C
:100020000C9451000C9451000C9451000C946400F9
:100030000C9451000C9451000C9451000C945100FC
:100040000C9451000C9451000C9451000C945100EC
:100050000C9451000C9451000C9451000C945100DC
:100060000C9451000C94510011241FBECFEFD8E026
:10007000DEBFCDBF11E0A0E0B1E0EAEAF2E002C0ED
:1000800005900D92A031B107D9F721E0A0E1B1E0D0
:1000900001C01D92A732B207E1F70E9449010C94FA
:1000A00053010C9400008AE08093810083EC99E076
:1000B000909389008093880082E080936F00109273
:1000C00085001092840008951F920F920FB60F9230
:1000D00011248F9381E0809310018F910F900FBEB8
:1000E0000F901F901895E1E1F1E08FEF9FEFDC0199
:1000F00080839183A283B38384839583A683B7830C
:1001000080879187A287B38784879587A687B787DB
:100110000895E1E1F1E080819181A281B3810197AD
:10012000A109B1098E3F2FEF9207A207B20720F471
:1001300080839183A283B383349681E0E132F80710
:1001400051F7089524E0829FC0011124FC01EF5E65
:10015000FE4FDC01A050BF4F8D919D910D90BC9141
:10016000A02D80839183A283B383089524E0829F8E
:10017000C0011124FC01EF5EFE4F8FEF9FEFDC0109
:1001800080839183A283B383089524E0829FC0017A
:100190001124FC01EF5EFE4F81E0408151816281BC
:1001A0007381452B462B472B09F080E0089524E00E
:1001B000829FC0011124FC01EF5EFE4F81E040816F
:1001C0005181628173814F3F5F4F6F4F7F4F09F0C5
:1001D00080E0089524E0829FC0011124FC01EF5EBD
:1001E000FE4F408151816281738141505109610903
:1001F000710981E04E3F5F4F6F4F7F4F08F080E005
:10020000089524E0829FC0011124FC01EF5EFE4F9F
:10021000408351836283738308952C9A00008AE09F
:10022000809323018FEF8093210180932501809398
:100230002201089530912101409125012091220150
:10024000942F922B982B932324232823922B909343
:100250002101232F20952923209326019095932374
:1002600090932401409322018093250108951092D8
:1002700026011092240180912301815019F080936E
:10028000230108958AE08093230183B180710C9447
:100290001A010E9453007894809110018823E1F3A1
:0A02A00010921001F9CFF894FFCF7F
:1002AA00F401000020BF0200E7030000E70300009A
:00000001FF
