:100000000EC028C027C026C025C024C023C022C0DF
:1000100021C020C031C01EC01DC01CC01BC0112487
:100020001FBECFE5D2E0DEBFCDBF10E0A0E6B0E05E
:10003000EAE3F3E002C005900D92A037B107D9F7CB
:1000400021E0A0E7B0E001C01D92A73BB207E1F7B5
:1000500061D171C1D5CF82E08ABD83BF87EC89BDF4
:1000600080E189BF12BE87B38F6087BB000088E044
:1000700080937300089508951F920F920FB60F9208
:1000800011242F933F934F935F936F937F938F939D
:100090009F93AF93BF93EF93FF93809174008F5F13
:1000A00080937400B49B20C0809173008430B1F4BD
:1000B00080917000909171009C012F5F3F4F3093B1
:1000C000710020937000FC01EB58FF4F20917200EB
:1000D00020831092720081E08093730080917300FE
:1000E000813039F582E023C0B49928C081E066D020
:1000F000809173008130B1F4809170009091710013
:100100009C012F5F3F4F3093710020937000FC01E2
:10011000EB58FF4F2091720020831092720084E010
:100120008093730080917300843019F488E0809389
:100130007300809172008F5F80937200FF91EF9146
:10014000BF91AF919F918F917F916F915F914F91EF
:100150003F912F910F900FBE0F901F901895E1EADD
:10016000F1E08FEF9FEFDC0180839183A283B38363
:1001700084839583A683B78380879187A287B3877B
:1001800084879587A687B7870895E1EAF1E08081A3
:100190009181A281B3810197A109B1098E3F2FEF0F
:1001A0009207A207B20720F480839183A283B383CE
:1001B000349681E0E13BF80751F7089590E0880F0D
:1001C000991F880F991FFC01EF55FE4FDC01A05AC3
:1001D000BF4F8D919D910D90BC91A02D80839183F7
:1001E000A283B3830895E82FF0E0EE0FFF1FEE0F18
:1001F000FF1FEF55FE4F8FEF9FEFDC018083918350
:10020000A283B3830895E82FF0E0EE0FFF1FEE0FF7
:10021000FF1FEF55FE4F81E0408151816281738164
:10022000452B462B472B09F080E00895E82FF0E09E
:10023000EE0FFF1FEE0FFF1FEF55FE4F81E04081D5
:100240005181628173814F3F5F4F6F4F7F4F09F044
:1002500080E00895E82FF0E0EE0FFF1FEE0FFF1F84
:10026000EF55FE4F408151816281738141505109A8
:100270006109710981E04E3F5F4F6F4F7F4F08F07A
:1002800080E00895E82FF0E0EE0FFF1FEE0FFF1F54
:10029000EF55FE4F40835183628373830895C49A60
:1002A00000008AE08093B3018FEF8093B1018093C7
:1002B000B5018093B20108953091B1014091B5012B
:1002C0002091B201942F922B982B9323242328233F
:1002D000922B9093B101232F209529232093B601CF
:1002E000909593239093B4014093B2018093B5010C
:1002F00008951092B6011092B4018091B30181501B
:1003000019F08093B30108958AE08093B30186B316
:100310008071D2CFA0DE23DF789437DF81E073DFF6
:10032000882311F081E05FDF809174008530E0F375
:0A03300010927400F2CFF894FFCF92
:10033A00E8030000E8030000E8030000E803000007
:00000001FF
