:100000001BC035C034C052C032C031C030C02FC058
:100010002EC02DC02DC02BC02AC029C028C0BAC0F8
:10002000BAC0BAC0BAC0BAC0BAC0BAC0BAC0BAC000
:10003000BAC0BAC0BAC0BAC011241FBECFE5D2E060
:10004000DEBFCDBF10E0A0E6B0E0ECE2F5E002C01C
:1000500005900D92A237B107D9F720E0A2E7B0E0F2
:1000600001C01D92A039B207E1F7A6D15DC2C8CF89
:100070001F920F920FB60F9211248F939F9380912E
:1000800079008F5F8093790080917600813031F420
:1000900098B382E0892788BBC39A01C0C3989F9117
:1000A0008F910F900FBE0F901F9018951F920F9277
:1000B0000FB60F9211240F900FBE0F901F9018953E
:1000C00080E880BF1DBC089582E08ABD83E083BFC5
:1000D00088E189BD12BE8AE087BB0000C49A87B55B
:1000E000826087BD87EC90E00197F1F700C00000C7
:1000F00007B400FEFDCF87B5846087BD0000E0DF58
:1001000080E589BF08958BE980BF8EE48DBD089599
:100110008BE980BF8AE48DBD08958BE980BF8AE3B7
:100120008DBD08958BE980BF80E38DBD08958BE977
:1001300080BF89E28DBD08958DE980BF88E08DBDC7
:1001400008958BE980BF82E28DBD08958DE980BF5F
:1001500081E18DBD08958CE980BF82E28DBD089557
:100160008DE980BF82E38DBD089588E980BF8CE76B
:100170008DBD08958CE980BF83E08DBD0895E09129
:1001800075008E2F90E08D30910588F4FC01E15FC1
:10019000FF4F099495CFB7CFBBCFBFCFC3CFC7CF4A
:1001A000CBCFCFCFD3CFD7CFDBCFDFCFE3CF089528
:1001B00080916000815019F080936000089582E37F
:1001C000809360008091770090917800892BB1F046
:1001D00077DF8091770090917800892F881F88279A
:1001E000881F809376008091770090917800880F27
:1001F000991F90937800809377000895109276006D
:10020000BECFEAE7F0E08FEF9FEFDC0180839183C0
:10021000A283B38384839583A683B78380879187E2
:10022000A287B38784879587A687B7870895EAE76B
:10023000F0E080819181A281B3810197A109B10988
:100240008E3F2FEF9207A207B20720F4808391839D
:10025000A283B383349680E0EA38F80751F7089513
:1002600090E0880F991F880F991FFC01E658FF4FF7
:10027000DC01AF59BF4F8D919D910D90BC91A02D88
:1002800080839183A283B3830895E82FF0E0EE0F7B
:10029000FF1FEE0FFF1FE658FF4F8FEF9FEFDC01B0
:1002A00080839183A283B3830895E82FF0E0EE0F5B
:1002B000FF1FEE0FFF1FE658FF4F81E04081518185
:1002C00062817381452B462B472B09F080E008950E
:1002D000E82FF0E0EE0FFF1FEE0FFF1FE658FF4F75
:1002E00081E040815181628173814F3F5F4F6F4F49
:1002F0007F4F09F080E00895E82FF0E0EE0FFF1F38
:10030000EE0FFF1FE658FF4F4081518162817381DC
:10031000415051096109710981E04E3F5F4F6F4FB4
:100320007F4F08F080E00895E82FF0E0EE0FFF1F08
:10033000EE0FFF1FE658FF4F4083518362837383A4
:100340000895C49A00008AE080938C008FEF809318
:100350008A0080938E0080938B00089530918A00EC
:1003600040918E0020918B00942F922B982B9323F9
:1003700024232823922B90938A00232F209529232E
:1003800020938F009095932390938D0040938B0042
:1003900080938E00089510928F0010928D008091AE
:1003A0008C00815019F080938C0008958AE080932E
:1003B0008C0086B38071D2CF87DE23DFC2DF80E07E
:1003C00090E09CD0809372007894C0E0D0E801E087
:1003D00010E89924939480E3E82E80EFF82E9AEAAF
:1003E000C92EDC2C20ECA22E23EAB22ED4DF1FDF94
:1003F000DFDE80918D0084FF0EC0D0937800C09323
:10040000770080E052DF811101C02ADF8091740003
:100410008F5F8093740080E048DF882309F44DC02B
:10042000809174008130A1F4109273008091750066
:100430008F5F809375008B3010F010927500809163
:100440007500811135C0B0927800A092770030C05D
:10045000823079F49092730081E002DFD0927800CC
:10046000C092770080917500811122C09092750032
:100470001FC0833049F41092730010927500F092FF
:100480007800E092770014C0853091F410937800E2
:100490000093770080917200882319F01092720007
:1004A00002C0909272006091720080E090E02ED0C5
:1004B0001092740080E0E9DE62DE8090730081E0DB
:1004C00088120EC0F2DE882359F081E0C9DE8091E7
:1004D00075008F5F809375008B3010F080927500EF
:1004E00080917200882311F0C39A01C0C398809153
:1004F00079008530E0F31092790078CFE199FECF52
:100500009FBB8EBBE09A99278DB30895262FE19962
:10051000FECF1CBA9FBB8EBB2DBB0FB6F894E29AE0
:0C052000E19A0FBE01960895F894FFCFF9
:10052C0032F401000020BF0200E7030000E70300E3
:02053C000000BD
:02000004008179
:0100000000FF
:00000001FF
